{
  "_format": "hh3-artifact-1",
  "contractName": "SupplyChain",
  "sourceName": "contracts/SupplyChain.sol",
  "abi": [
    {
      "anonymous": false,
      "inputs": [
        {
          "indexed": true,
          "internalType": "uint256",
          "name": "itemId",
          "type": "uint256"
        },
        {
          "indexed": false,
          "internalType": "enum SupplyChain.State",
          "name": "newState",
          "type": "uint8"
        },
        {
          "indexed": true,
          "internalType": "address",
          "name": "actor",
          "type": "address"
        },
        {
          "indexed": false,
          "internalType": "uint256",
          "name": "timestamp",
          "type": "uint256"
        }
      ],
      "name": "ItemStateChanged",
      "type": "event"
    },
    {
      "inputs": [
        {
          "internalType": "uint256",
          "name": "_itemId",
          "type": "uint256"
        }
      ],
      "name": "getItemHistory",
      "outputs": [
        {
          "components": [
            {
              "internalType": "enum SupplyChain.State",
              "name": "state",
              "type": "uint8"
            },
            {
              "internalType": "address",
              "name": "actor",
              "type": "address"
            },
            {
              "internalType": "uint256",
              "name": "timestamp",
              "type": "uint256"
            }
          ],
          "internalType": "struct SupplyChain.TrackingRecord[]",
          "name": "",
          "type": "tuple[]"
        }
      ],
      "stateMutability": "view",
      "type": "function"
    },
    {
      "inputs": [
        {
          "internalType": "string",
          "name": "_name",
          "type": "string"
        }
      ],
      "name": "itemHarvested",
      "outputs": [
        {
          "internalType": "uint256",
          "name": "",
          "type": "uint256"
        }
      ],
      "stateMutability": "nonpayable",
      "type": "function"
    },
    {
      "inputs": [
        {
          "internalType": "uint256",
          "name": "_itemId",
          "type": "uint256"
        }
      ],
      "name": "itemProcessed",
      "outputs": [],
      "stateMutability": "nonpayable",
      "type": "function"
    },
    {
      "inputs": [
        {
          "internalType": "uint256",
          "name": "_itemId",
          "type": "uint256"
        }
      ],
      "name": "itemReceived",
      "outputs": [],
      "stateMutability": "nonpayable",
      "type": "function"
    },
    {
      "inputs": [
        {
          "internalType": "uint256",
          "name": "_itemId",
          "type": "uint256"
        },
        {
          "internalType": "address",
          "name": "_newOwner",
          "type": "address"
        }
      ],
      "name": "itemShipped",
      "outputs": [],
      "stateMutability": "nonpayable",
      "type": "function"
    },
    {
      "inputs": [
        {
          "internalType": "uint256",
          "name": "",
          "type": "uint256"
        }
      ],
      "name": "items",
      "outputs": [
        {
          "internalType": "uint256",
          "name": "id",
          "type": "uint256"
        },
        {
          "internalType": "string",
          "name": "name",
          "type": "string"
        },
        {
          "internalType": "address",
          "name": "owner",
          "type": "address"
        },
        {
          "internalType": "enum SupplyChain.State",
          "name": "currentState",
          "type": "uint8"
        }
      ],
      "stateMutability": "view",
      "type": "function"
    }
  ],
  "bytecode": "0x6080604052348015600e575f5ffd5b50610e078061001c5f395ff3fe608060405234801561000f575f5ffd5b5060043610610060575f3560e01c806366c64e5114610064578063a55dd46b1461008d578063b18951c2146100a2578063bfb231d2146100c3578063de42b543146100e6578063e37305db146100f9575b5f5ffd5b6100776100723660046109f1565b61010c565b6040516100849190610a3c565b60405180910390f35b6100a061009b3660046109f1565b6101fc565b005b6100b56100b0366004610abc565b6103ee565b604051908152602001610084565b6100d66100d13660046109f1565b610509565b6040516100849493929190610b6f565b6100a06100f4366004610bcc565b6105c6565b6100a06101073660046109f1565b610817565b5f81815260016020526040812054606091036101435760405162461bcd60e51b815260040161013a90610c05565b60405180910390fd5b5f82815260016020908152604080832060030180548251818502810185019093528083529193909284015b828210156101f1575f848152602090206040805160608101909152600284029091018054829060ff1660038111156101a8576101a8610a08565b60038111156101b9576101b9610a08565b8152815461010090046001600160a01b031660208083019190915260019283015460409092019190915291835292909201910161016e565b505050509050919050565b5f818152600160205260408120805490910361022a5760405162461bcd60e51b815260040161013a90610c05565b60028101546001600160a01b031633146102a25760405162461bcd60e51b815260206004820152603360248201527f4f6e6c79207468652064657369676e6174656420726563697069656e7420636160448201527237103932b1b2b4bb32903a34329034ba32b69760691b606482015260840161013a565b600280820154600160a01b900460ff1660038111156102c3576102c3610a08565b146103105760405162461bcd60e51b815260206004820181905260248201527f4974656d206d75737420626520696e202753686970706564272073746174652e604482015260640161013a565b60028101805460ff60a01b1916600360a01b1790556040805160608101909152600380830191908190815233602080830191909152426040909201919091528254600181810185555f9485529190932082516002909402018054929390929091839160ff19169083600381111561038957610389610a08565b0217905550602082015181546001600160a01b0390911661010002610100600160a81b031990911617815560409182015160019091015551339083905f516020610db25f395f51905f52906103e2906003904290610c33565b60405180910390a35050565b5f805481806103fc83610c4e565b90915550505f8054808252600160208190526040909220818155909181016104248582610cf6565b50600281810180546001600160a81b0319163360ff60a01b19811691909117909155604080516060810182525f808252602080830194909452429282019290925260038086018054600181810183559185529490932082519490950290940180549194909392849260ff19169184908111156104a2576104a2610a08565b0217905550602082015181546001600160a01b0390911661010002610100600160a81b031990911617815560409182015160019091015551339083905f516020610db25f395f51905f52906104fa905f904290610c33565b60405180910390a35092915050565b600160208190525f91825260409091208054918101805461052990610c72565b80601f016020809104026020016040519081016040528092919081815260200182805461055590610c72565b80156105a05780601f10610577576101008083540402835291602001916105a0565b820191905f5260205f20905b81548152906001019060200180831161058357829003601f168201915b505050600290930154919250506001600160a01b0381169060ff600160a01b9091041684565b5f82815260016020526040812080549091036105f45760405162461bcd60e51b815260040161013a90610c05565b60028101546001600160a01b0316331461065a5760405162461bcd60e51b815260206004820152602160248201527f4f6e6c7920746865206f776e65722063616e207368697020746865206974656d6044820152601760f91b606482015260840161013a565b60016002820154600160a01b900460ff16600381111561067c5761067c610a08565b146106d45760405162461bcd60e51b815260206004820152602260248201527f4974656d206d75737420626520696e202750726f636573736564272073746174604482015261329760f11b606482015260840161013a565b6001600160a01b03821661072a5760405162461bcd60e51b815260206004820152601a60248201527f496e76616c6964206e6577206f776e657220616464726573732e000000000000604482015260640161013a565b600281810180546001600160a01b0385166001600160a81b031990911617600160a11b1790556040805160608101825282815233602080830191909152429282019290925260038085018054600181810183555f928352949091208351919095029094018054929490939092849260ff19909116919084908111156107b1576107b1610a08565b0217905550602082015181546001600160a01b0390911661010002610100600160a81b031990911617815560409182015160019091015551339084905f516020610db25f395f51905f529061080a906002904290610c33565b60405180910390a3505050565b5f81815260016020526040812080549091036108455760405162461bcd60e51b815260040161013a90610c05565b60028101546001600160a01b031633146108ad5760405162461bcd60e51b8152602060048201526024808201527f4f6e6c7920746865206f776e65722063616e2070726f636573732074686520696044820152633a32b69760e11b606482015260840161013a565b5f6002820154600160a01b900460ff1660038111156108ce576108ce610a08565b146109265760405162461bcd60e51b815260206004820152602260248201527f4974656d206d75737420626520696e2027486172766573746564272073746174604482015261329760f11b606482015260840161013a565b6002818101805460ff60a01b1916600160a01b1790556040805160608101825260018082523360208084019190915242938301939093526003808601805480840182555f91825294902083519490950290940180549294909392849260ff1990911691849081111561099a5761099a610a08565b0217905550602082015181546001600160a01b0390911661010002610100600160a81b03199091161781556040918201516001918201559051339184915f516020610db25f395f51905f52916103e2914290610c33565b5f60208284031215610a01575f5ffd5b5035919050565b634e487b7160e01b5f52602160045260245ffd5b60048110610a3857634e487b7160e01b5f52602160045260245ffd5b9052565b602080825282518282018190525f918401906040840190835b81811015610a9d578351610a6a848251610a1c565b6020818101516001600160a01b031685820152604091820151918501919091529390930192606090920191600101610a55565b509095945050505050565b634e487b7160e01b5f52604160045260245ffd5b5f60208284031215610acc575f5ffd5b813567ffffffffffffffff811115610ae2575f5ffd5b8201601f81018413610af2575f5ffd5b803567ffffffffffffffff811115610b0c57610b0c610aa8565b604051601f8201601f19908116603f0116810167ffffffffffffffff81118282101715610b3b57610b3b610aa8565b604052818152828201602001861015610b52575f5ffd5b816020840160208301375f91810160200191909152949350505050565b848152608060208201525f8451806080840152806020870160a085015e5f83820160a0908101919091526001600160a01b0386166040850152601f909101601f19168301019050610bc36060830184610a1c565b95945050505050565b5f5f60408385031215610bdd575f5ffd5b8235915060208301356001600160a01b0381168114610bfa575f5ffd5b809150509250929050565b60208082526014908201527324ba32b6903237b2b9903737ba1032bc34b9ba1760611b604082015260600190565b60408101610c418285610a1c565b8260208301529392505050565b5f60018201610c6b57634e487b7160e01b5f52601160045260245ffd5b5060010190565b600181811c90821680610c8657607f821691505b602082108103610ca457634e487b7160e01b5f52602260045260245ffd5b50919050565b601f821115610cf157805f5260205f20601f840160051c81016020851015610ccf5750805b601f840160051c820191505b81811015610cee575f8155600101610cdb565b50505b505050565b815167ffffffffffffffff811115610d1057610d10610aa8565b610d2481610d1e8454610c72565b84610caa565b6020601f821160018114610d56575f8315610d3f5750848201515b5f19600385901b1c1916600184901b178455610cee565b5f84815260208120601f198516915b82811015610d855787850151825560209485019460019092019101610d65565b5084821015610da257868401515f19600387901b60f8161c191681555b50505050600190811b0190555056fed664237411f6fc2398aa8e2b84dbbd2602c7ebcf17d9c3cdea589f53b55627cfa2646970667358221220dc13cbfadabfcf20bc5f40a816cb23e9961213a66c31f92f383897f90d735b3664736f6c634300081c0033",
  "linkReferences": {},
  "deployedLinkReferences": {},
  "immutableReferences": {},
  "inputSourceName": "project/contracts/SupplyChain.sol",
  "buildInfoId": "solc-0_8_28-c25014b39562cefc800cbc5a86ffbda08a5bcb07"
}